:2000000000400020B52E010001C9011001C9011001C9011001C9011001C9011001C901107A
:1C00200001C9011001C9011001C9011001C9011001C9011001C901103FC9011089
:20003C001FB501909FE201988D49408908800198C01C0EF00BFD0346BE49BD480978006845
:20005C00002214F018FEBB48B94A0078401CC1B21068BBA3002214F00EFEB648B44A00787F
:20007C00001DC1B21068BAA3002214F004FE019A00200821D21C06F039FA8CE2AD48AC4A83
:20009C000078801CC1B21068C2A3002214F0F3FD81E2B24910200CF04BFEB14909788142B9
:2000BC000AD9A448A24A0078801CC1B21068BCA3002214F0E0FD6EE29E489D4A0078801CD7
:2000DC00C1B21068BBA3002214F0D5FD63E201984078002840F0A380BE490020087001987A
:2000FC00C07800283CDD00208DF8080032E001989DF8081040689DF8083000EBC10042788B
:20011C00B549172058430A5401989DF808109DF808304068B14A10F831101720584311545F
:20013C000198AF4C9DF808209DF80830416801EBC201891C0A68172000FB0340026089882E
:20015C0081800198A749C07808709DF80800401C8DF8080001989DF80810C0788842C6DCD9
:20017C00A1480221002212F08FFC9DF808000E2811DA9DF808100120884082B29B4800211C
:20019C0012F082FC9DF80800401C8DF808009DF808000E28EDDB00208DF808002BE09DF855
:2001BC0008108F4A172000FB01200EF04FFC03909DF808208E4B0399172000FB02300F223C
:2001DC000DF000FD8B4C9DF80810894B9DF80820172000FB013044F832009DF80810012055
:2001FC00884081B28148002212F04EFC9DF80800401C8DF808007B489DF808100078884279
:20021C00CDDC78484B490078494A00900878001DC1B21068C3A3002214F02DFDBBE10198B7
:20023C004078122807D14248006803210022C2A314F021FDAFE1019840780C2807D13C48A8
:20025C00006803210022C1A314F015FDA3E13848006803210022C2A314F00DFD9BE1C046B3
:20027C00A42100200198407800287BD13148304A0078001DC1B21068C9A3002214F0FBFCBC
:20029C00364910200CF054FD2A490090284A0878401CC1B21068C5A3002214F0ECFCBF498C
:2002BC0000200870019801994089091D08F01EFB8DF80800294910200CF03AFD2849097803
:2002DC00814213D800208DF80C00012103AA002340F2053002F0CAFD1648154A0078801CC0
:2002FC00C1B21068B5A3002214F0C5FCCB4811499DF8084003680E4A0978600000EB0410CB
:20031C001B181068491DC9B29B1C002214F0B3FC354811F03DFC019840890EF081FD0F49BC
:20033C0010200CF005FD012840F0358104E0C046180E0020C3220020B94815F09DFE2AE183
:20035C00436F6E6E656374656420746F203000C0496E697469616C697A656400F17F0110E4
:20037C002C0E0020B448B54A0078001DC1B2106897A3002214F07FFC0198AF494078AF4A6F
:20039C0000900878401DC1B2106895A3002214F072FC00E14164766572746973696E6700BC
:2003BC00526561647920746F2041647665727469736500C043616E277420416476203A2040
:2003DC004D617820636F6E6E73207265616368656400C046250E0020A1190020A0190020A2
:2003FC00A21900201C0E0020A00B002074080020A819002080080020914910200CF098FC32
:20041C008DF808000198808811F014FD854908808C48844900780988884240F3BC8081497D
:20043C007E480B8801684FF6FF72580000EB031042527C487C4900880968002201F8302051
:20045C00784979480A880068002100EBC200C180744801880120884082B27448002112F0B4
:20047C0013FB704801880120884082B27048002112F00AFB6B4801880120884082B26D4806
:20049C00002112F001FB9DF8080038B96F4800211C2212F0F9FA624815F0F8FD6849102003
:2004BC000CF046FC64490090644A0878401CC1B210683EA3002214F0DEFB5F485F4A007888
:2004DC00001DC1B2106849A3002214F0D4FB5D489DF808100078401E88425CD15648574AB9
:2004FC000078801CC1B21068574B002214F0C3FB5148524A0078401DC1B210683FA3002262
:20051C0014F0B9FB47E001984B49C0784B4A00900878001DC1B210683CA3002214F0ABFB23
:20053C0039E0C0464465766963657320466F756E6420256400C046C0494E56414C4944200B
:20055C00504152414D455445525300C0434F4D4D414E4420444953414C4C4F57454400C004
:20057C004552524F52000198807800283FF45BAD401E3FF4ACAD801E3FF480AD401E3FF468
:20059C0088AD401E3FF46EAE401E3FF435AF401EB9D0801FFFD100901FBDC046260E0020CC
:2005BC00436F6E6E65637465642100C0436F6E6E656374656420746F2025640043616E2733
:2005DC0074206164763A206E6F206C696E6B7300436F6E6E656374204661696C656400C0C9
:2005FC00526561736F6E3A20256400C0446973636F6E6E65637465642100C046526561645E
:20061C007920746F205363616E00C046506172616D2055706461746520256400A021002099
:20063C00842000202A0E0020AC220020BC0A0020240A0020700A0020C3220020180E00207B
:20065C00F17F01102C0E0020BC030000A00B00202DE9F04F85B011F801ABDFF86835DFF88F
:20067C0068C5DFF868B58146AAF10200132809F1FD0209F1F40609F59C7709F1860809F51A
:20069C00AC7409F1660500F28B82DFE810F0D40089021400400043007002890298008902DD
:2006BC007000A80073007800DA008F01D501CB007802DF01DF0109F1A0040822204600F0B8
:2006DC0089FA06460821204600F088FA09F1980704223146384600F07DFA0421384600F080
:2006FC007DFA00204142494409EB000291F89F1082F8BF10401C0828F4DB09F1C70221463B
:20071C0009F1D70000F06EFA0020A87157E20121B17154E23178707A012900F010000DD10D
:20073C0030B100207870316CB87849080FF0B8FF99F80600002100F059FA0FE040B1326C67
:20075C00DFF88C0409F59D735208494615F082FF99F806000122002100F04CFA01202870CF
:20077C00484600F04BFA0121A971B17027E20121F17024E2087870700121F1711FE2A879A5
:20079C0018B93D2030770120F076707A000701D40E2037E100205F1C0B5C1CF800603343E9
:2007BC000B543C5C23401354401C0828F4DB287808B90921C5E148460FF064FEF5E10020EB
:2007DC005F1C0B5C1CF8004023430B543C5C23401354401C0828F4DB02203072EFE1A87990
:2007FC0020B93D2101203177F076E8E1707C012803D10C2171770721A3E111F8010B30754A
:20081C00022209F5857000F0E5F90146022209F5867000F0DFF9F07C012100287174E4D160
:20083C000C218EE1707AC10601D41220EAE0484600F0E8F9B9E1087830770021F176F021C5
:20085C00F4E0737A980704D413F0110F70D01A22DEE0287C012804BF687C0F2808D0687D7F
:20087C0008B16A7C12B12A7F012A03D158070BD52322CDE010B1687C012803D098F80A00E6
:20089C00012806D1580702D40F2171778AE12A22BEE008784A7800EB02203881CA78887850
:2008BC0000EB022078814A79087900EB0220B881CA79887900EB0220F881087A38744A7AD0
:2008DC00887A02EB00227A82C87A0A7B00EB0220B8828A7B487B00EB0220F8820A7CC87BC9
:2008FC0000EB022038838A7C487C00EB022078830A7DC87C00EB0220B883487D897D00EB79
:20091C000120F88309F5A6700490798A0391387C0290B9F808100191F8890090BB897A89E7
:20093C00398948460FF012FB18B1707A41076ED467E07889A8F804000022B989A8F80610FC
:20095C000221F889A8F8080088F80010A8F80220B9F83400C01DE883B9F83210B8F8040009
:20097C00B0EB510F02BFB8F80600B9F83410884202BFB8F80800B9F83610B0EB111F13D00C
:20099C00687D18B10F21A976FE21DAE0FC21484600F03CF9F8890090BB897A89398999F8EA
:2009BC00060000F037F90AE10021CAE08A78C8780F798C7902EB0025487907EB0027C87943
:2009DC0001F10B0204EB00240492BBB2487A8A7A00EB022080B20390087A0290B9F8082061
:2009FC000192A2B2009291F800C048780CEB002081B2AAB248460FF0A9FA80B1707A410720
:200A1C0002D40F207077CDE0484600F007F91E22484605B0BDE8F04F0F2100F003B9A8F8C0
:200A3C000450A8F80670A8F808400021484605B0BDE8F04F00F0FAB8087820704A786270BA
:200A5C00487870700121F1717971B8E00A78487802EB0022628209F5BC778878CA7800EB41
:200A7C000220E0824A79087900EB022020828879C97900EB0120A08209F5AC7109F5AC703D
:200A9C00CA8A8089A18B904288BF1046A083884209F5AC7009F5AC7100894A8A218B14BF44
:200ABC0001260026904288BF1046884214BF012100210E4320830122A18B387900F0BAF8E8
:200ADC00218B814205D3A18B3879012200F0B2F8014609F5AC70798009F5AC7140890A8A47
:200AFC00904288BF1046628B6083904214BF012100210E43824209F5AC7009F5AC7289419E
:200B1C00C089938AE28BC90F984288BF1846904214BF012200221643E08311B1484600F0A9
:200B3C008DF8BAF1140F19D146B1E08B0090638BA28B218B99F8060000F084F8287830B917
:200B5C001521484605B0BDE8F04F00F05FB8484605B0BDE8F04F152115F0A8B81EB13878D4
:200B7C0040F008003870397841F0200108E008780F2807D0122802D0142806D01FE00021C2
:200B9C0039701CE00120387119E099F8780140F0020089F8780140F0100089F878010EE073
:200BBC0086F81DA0484600F051F840B99BF8000005B0BDE8F04F4FF480410AF083BC05B000
:200BDC00BDE8F08FEC4D0020542200206E4F0020018B0010DFF800F0D1920010DFF800F06C
:200BFC00AD710110DFF800F09D720110DFF800F069CA0010DFF800F001CA0010DFF800F050
:200C1C00B9950010DFF800F05D880010DFF800F0AD7E0010DFF800F0E5BE0010DFF800F05B
:200C3C00097F0010DFF800F049890010DFF800F0697F0010DFF800F0598F0010DFF800F012
:200C5C00DD930010DFF800F065BF0010DFF800F0497E001000B5ADF12C0D029000208DF89C
:200C7C000C0053E102980490049840788DF814009DF8140040BBA348A3490222102300909B
:200C9C0010200CF055F8AB48032210239E49009010200CF04DF80498AD49C01C02680A604A
:200CBC0080888880AB480178502012F007F80246A948AA4B0078AA4900901020019301231A
:200CDC000CF036F88DF8140001208DF80C0049E10298049004984078E0B90498C07890B129
:200CFC009C480178502011F0E9FF0246A848A94B00789B4900901020019300230CF018F817
:200D1C000499487006E0A44814F002FE10B9012015F002FA04984078002800F02381012070
:200D3C008DF80C001EE1029804900498407808BB02988078032803D198490120087015E0C2
:200D5C009748008858B19548007810B99548007860B193480188904811F076FD06E08F4816
:200D7C000078012802D18D490020087001208DF80C00F7E0049840780C2840F0F3800020A1
:200D9C008DF80C00EEE00298049004984078002835D10498408900900498007B0190049BEC
:200DBC0004988149C2781B1D10200BF0C1FF0498007B04282AD17949002008707B4940F2C6
:200DDC00064205AB10200BF0B3FF784910204FF480620DF115030BF0ABFF9DF8150002287D
:200DFC0002D19DF8140088B901208DF81800012106AA002340F2053002F038F806E004985C
:200E1C004078312802D165490020087001208DF80C00A7E00298049004986549828805AB21
:200E3C0010200BF085FF04986249828810200BF07FFF01208DF80C0094E002988088ADF880
:200E5C0010000298007B8DF812005B49BDF810209DF8123010200BF06BFF83E00298049034
:200E7C00564815F013F90498407800287AD101208DF80C0076E00298049004988088ADF861
:200E9C0014004F480078022813D14E48006860B14C480068406840B14A4801680498496819
:200EBC000A46001D05A9904721E000208DF81E001DE043480078012803D100208DF81E00A0
:200EDC0015E03F48007890B901208DF81E000498C088ADF8160004980089ADF818000498D8
:200EFC004089ADF81A0004988089ADF81C003649102005AA0BF01CFF34E001208DF80C00AE
:200F1C0030E0C046CC210020A999000002988078052811DC05283FF436AF00283FF4A2AEB4
:200F3C00801E3FF4D5AE401E3FF4FDAE401E3FF4FAAEE2E7DC210020801F3FF46BAF401E9C
:200F5C008CD0401F3FF479AF401F94D0D5E7C046642200206C21002000100020B80D002072
:200F7C00094501109DF80C0001280DD11548006850B114480068006830B112480068006851
:200F9C0001460298884700E001200BB000BDC04602100020D70D0020A8200020FC0F0020BD
:200FBC00FE0F0020FD0F0020E99C0000A5AE0000097F0110412001000DDA0000CC200020F6
:200FDC00F00F002004100020051601100EB501910090009802900248029A019990470EBD45
:040FFC00987F0100D9
:20100000B41200001810000015AB0110FDB301106DC00110FDAE011099B5011000000000F7
:08102000000000002D0000009B
:20102800B01200003C100000B1C00110A9BF011067C0011069B80110000000000000000035
:041048003000000074
:20104C00B012000060100000BDC00110CDB30110D9BD01106DB3011000000000000000005B
:04106C00310000004F
:20107000000000005810002004000000000000000000000020000000E8C9011030000000C2
:2010900028100000601000200400000000000000000000000C000000D8CA0110180000009D
:2010B0004C1000006810002004000000000000000000000024000000F0CA01101800000021
:2010D00000000000701000200400000000000000000000001000000018CA01102C0000002D
:2010F0000010000080100020040000000000000000000000200000006CCA01102400000091
:20111000FFFFFFFF881000200400000000000000000000002800000090CA01102400000050
:20113000FFFFFFFF901000200400000000000000000000001400000008CB011018000000CF
:20115000FFFFFFFF9810002004000000000000000000000058000000B4C90110340000009D
:20117000FFFFFFFFA01000200400000000000000000000001000000020CB0110180000006B
:20119000FFFFFFFFA81000200400000000000000000000001C000000B4CA01102400000098
:2011B000FFFFFFFFB01000200400000000000000000000003800000044CA011028000000C0
:2011D000FFFFFFFFB81000200400000000000000000000005400000078C901103C00000035
:0811F000010000007080010005
:0411F80001000000F2
:0411FC0000000E00E1
:0412000000000F00DB
:0412040032000000B4
:0412080001000000E1
:04120C00340E00207C
:0412100000020000D8
:0412140000000000D6
:0412180001C90110F7
:04121C0000000000CE
:0412200000000000CA
:0412240008000000BE
:0412280000002200A0
:04122C00140C00207E
:0412300000000000BA
:0412340000000000B6
:0412380008000000AA
:04123C00780D002009
:0412400000000000AA
:0412440000000000A6
:04124800080000009A
:04124C00000000009E
:04125000000000009A
:041254000000000096
:041258000000000092
:04125C00010000008D
:04126000AC0C0020B2
:041264000600000080
:041268000100000081
:04126C00080B00204B
:04127000000000007A
:041274000000000076
:041278000002000070
:04127C00000000006E
:02128000290043
:02128200010069
:02128400250043
:02128600300036
:02128800310033
:02128A002D0035
:02128C0001005F
:01128E00015E
:0812900003000000EC7F0100E7
:0812980000000000000000004E
:0412A0000000010049
:0412A4000000030043
:0412A80013C401105A
:0412AC006D5F010071
:0412B000B812000070
:0412B400B81200006C
:0412B8000000000032
:0412BC0008100020F6
:0412C0003D6201008A
:0412C4002000000006
:0412C800287F01007A
:0412CC00B87D0100E8
:0412D00029C101101F
:0412D400575001006E
:0412D800F3530100CB
:0412DC00A1C7011095
:0412E000A3C701108F
:0412E4000000000006
:0412E8004F7F010033
:0412EC00E07B0100A2
:0412F000F87B010086
:0412F400C87B0100B2
:0212F8000200F2
:0212FA000900E9
:0212FC000100EF
:0212FE000000EE
:0113000001EB
:041304007161010012
:04130800E93F0100B8
:04130C00E1520100A9
:04131000054401008F
:04131400034501008C
:04131800ED2A0100B9
:04131C00BDE8000028
:04132000EF64010075
:04132400E1170100CC
:0413280015C70110D4
:04132C0025C70110C0
:201330002DE9F8435FEA000906D1002012F0C6FB02E04846FFF778FC09F16605687D0028F4
:2013500000F08381697CDFF89C04002909F1860709F20F1809F1EC0609F59E7443D0012922
:2013700058D002292FD003295ED0062900F09880072900F06081082900F0C080092900F0F6
:20139000CD800A2900F09F800B2900F0A8800C2900F0D0800F2900F0EB80112900F015819A
:2013B000122900F0DC80142900F01881152900F03981F02900F04B81FC2900F04581FE2911
:2013D00000F04F81B1E7297C012908D1C07808B900F0C7B94846FFF727FC16213CE148460B
:2013F00015F05AFEC9E1297C012940F04B81C078002800F04E8178883978400078804900BA
:20141000B88839704000B880012138890001388129778EE7297C012940F04181C078002888
:2014300018BFB97285D13EE1297C012940F04281807838B1A078012804D10021A1704846AC
:20145000FFF7EAFBB07B012809D10021316071600122BA7306214846FFF7EEFB6CE7F07B4E
:20147000012818D14846FFF7DFFB0020B873012129704846FFF7C8FB0120A8710021717360
:20149000717A99F8060006291ABF00221A210022FFF7B6FB50E798F8000001283DD014E19A
:2014B000287C012840F01881B07A012811D14846FFF7BAFB002030723073F072B073B0720C
:2014D000F073707338E7287C012840F01481F07A012840F00A810021B9730B21BBE7297CF7
:2014F000012940F011818078002800F011810321B1E700222221FFF783FB71E1287C01289A
:2015100040F01681307C022809F1FD0240F0198199F80610002015F0BBFD0AE7297C012917
:2015300040F01B81807800281FD0B9F82200A9F81E00FEE6287C012840F01A81707E01289B
:2015500040F01D81B07E0128F3D1308C0090F38B327F99F80610002015F096FDE9E6297C44
:20157000012940F01C818078002800F0FA80E0E6287C012840F017816078012813D1207FFB
:201590000F281CBF002012F099FA00206070607F1A2808BF002117D000210091002300229D
:2015B00015F06EFDC5E6A078012807D10021A17023220F214846FFF73BFBBDE62078012822
:2015D00040F0CF800021217045E7297C012940F0EE80C078002800F0EE80AAE6287C012816
:2015F00040F0EF8009F5AF76B07E810613D500F0DF000107B0760BD500F0F700B076308BD7
:201610000090B38AF28A718A99F80600FFF720FB002030708DE6810740F1CD8000F0FD00A8
:20163000B076F5E7297C012940F0CF808078002800F0D0807DE64846FFF70EFB0128F9D008
:2016500002E0002012F03AFA0020BDE8F283407A0028FAD098F80110484615F00DFD0120FD
:20167000F3E7A87E0F28ECD1FC214846FFF7E4FA608900902389E288A18899F80600FFF7A2
:20169000CFFAE1E7484615F0F3FC2874E88A2883DAE7B9F80A00E98B884209D0D4E7484692
:2016B00015F0E2FCF1E7B9F80A00B9898842CBD12821D1E7484615F0D3FC28740021E88A6A
:2016D0002883B1730020F073BFE7288B401E288380B2002822D0B7E7484615F0BDFC287474
:2016F0000021E88A2883B172AEE7288B401E288380B298B1A8E7484615F0AAFC2874002128
:20171000E88A2883F1729FE7484615F09DFCBCE7288B401E288380B2002895D1317A99F82C
:20173000060001297FF4E5AE2221FFF765FA57E0484615F085FC28740121E88A2883317400
:2017500082E7288B401E288380B20028F8D199F80610222015F09CFC42E048460EF098FE67
:2017700093E7288B401E288380B2002838D06BE70120F076484615F05FFC287464E7288B60
:20179000401E288380B20028F8D1308C0090F38B327F99F80610222015F076FC20E04846A4
:2017B00015F046FC71E748460BF00CFD6DE7484615F03AFC69E7288B401E288380B278B164
:2017D00042E7484614F078FA5FE71521484614F073FA5AE7288B401E288380B20028EFD13A
:2017F000222139E75C4D002000B5ADF1140D9D489D490AF0E9FD9E4814F03AFC9B49086022
:2018100000209D490090402001909A4841F2883200230FF037FC994810F0ECF94FF0804048
:2018300000210FF0DBFD9649086096481E22212111F030F9944800214FF6FF7211F02AF9F8
:20185000924800214FF6FF7211F024F9904800214FF6FF7211F01EF98E4800214FF6FF7235
:2018700011F018F9864887490068012200230FF081FFA020ADF808008749BDF80830062229
:2018900010200BF05BFA8449BDF80830102007220BF054FA8049BDF80830102008220BF051
:2018B0004DFA7D49BDF80830102009220BF046FA7949BDF8083010200A220BF03FFA76498A
:2018D000BDF8083010200B220BF038FA7249102002224FF47A630BF031FA6F4910200C2216
:2018F00050230BF02BFA6C4910200D2250230BF025FA694910200E2250230BF01FFA66495C
:2019100010200F2250230BF019FA63491020102250230BF013FA60491020112250230BF0D2
:201930000DFA5D491020122250230BF007FA5A491020132250230BF001FA5749102017229D
:2019500050230BF0FBF954491020182250230BF0F5F9514910201522C8230BF0EFF94E494C
:2019700010201622C8230BF0E9F94B49102019224FF47A730BF0E2F9474910201A22002303
:201990000BF0DCF937480178502011F09DF9AF49024610200BF0D2F901208DF80A00002062
:2019B000ADF8080001210DF10A02002340F2053001F062FA40F20630022102AA002301F01C
:2019D0005BFAA34A4FF442700F21002301F054FAA04A40F207300721002301F04DFA002038
:2019F0008DF80B000F208DF80B0001210DF10B02002340F2044001F03FFA9748974913F0D6
:201A100011FD96480178480000EB011080B214F036FC93490860C0B100208DF80C000EE051
:201A30008F489DF80C3001684FF6FF72580000EB031042529DF80C00401C8DF80C00874888
:201A50009DF80C1000788842EADC84480078C00014F015FC83490028086049D000208DF88A
:201A70000C003FE094210020982100209C210020082200208420002049610100D1530100C2
:201A9000180E0020A00B002074080020BC0A0020240A0020700A0020D133010071489DF868
:201AB0000C200068002100EBC200C1806D489DF80C200068002100F832106A489DF80C20C7
:201AD0000068002100EBC200818066489DF80C200068002100EBC20041809DF80C00401C5C
:201AF0008DF80C005D489DF80C1000788842D5DC5D485E4900221523009010200BF01EF984
:201B10005B4910204FF0FF320BF018F9594910204FF0FF320BF012F913F01CF94FF0FF3097
:201B30000EF0C4FA01208DF8100002208DF8110003208DF8120004208DF813004E490A68EC
:201B500002A80260097901710020012104AA08F0DDFA012001210DF1110208F0D7FA022077
:201B700001210DF1120208F0D1FA032001210DF1130208F0CBFA0420052102AA08F0C6FA9B
:201B90003E4813F0EFFC3E4910200BF0D7F843480178502011F098F83A49024610200BF045
:201BB000CDF83E480178502011F08EF83649024610200BF0C3F802208DF8080001208DF858
:201BD000090000208DF80A0001208DF80B0000208DF80C002D4902A84FF4806201230090E2
:201BF00010200BF0ABF80DF1090040F2024201232649009010200BF0A1F80DF10A0040F269
:201C1000034201232149009010200BF097F80DF10B0040F2064201231C49009010200BF0D0
:201C30008DF803A84FF4836201231849009010200BF084F81649174A10200BF07FF81649BF
:201C500010200BF07BF805B000BDC04651880110A40F0020C8100020501000202C0E0020CF
:201C7000A0210020AC2200204C0E00206DF20000C1510100F55501002D8001000C11002063
:201C900099EC00003181011011660100494D00004D58010048100020C5AB0010942100206B
:201CB0002DE9F84FDFF86C54696884B0019121B905B0BDE8F04F15F0B3B90978DFF858A451
:201CD000DFF858B4DFF85884DFF8586401291CBF0229042946F2A81741F64C5905D040295D
:201CF00018BF802900F0F8800AE214F071FC0028FAD00198007807F081FB0090446814B910
:201D1000002011F0DBFEDFF820144878002800F0A48002F0F1FA14F0D3F902900168009872
:201D300001914F680BF0B8FE02286AD000990A78012A04D0022A25D0042A41D0E0E1DFF823
:201D5000EC3319680A7A1BF80230337018B915F063F94844A0602069C17E01F0EF01C176C9
:201D70002069C17E41F08001C1762069C17E01F0F00141F00201C176B86821694044C86136
:201D9000012035E10521317018B915F045F94844A0602069C17E01F0EF01C1762069C17EED
:201DB00041F08001C1762069C17E01F0F00141F00201C176B868216940440862022017E163
:201DD0000621317018B915F027F94844A060DFF860030168887C0CF085FE2069C17E01F0CA
:201DF000EF01C1762069C17E41F08001C1762069C17E01F0F00141F00201C176B86821693C
:201E1000F3E001980178802913D10820C94930700A78012A03D0C4484178022903DB396976
:201E30000120C87213E0DAF828003A690178D1720DE0C049072030700A783869012A02D10D
:201E50000121C17203E0DAF828104A78C2720298B54A8179019891704DE10098002819D036
:201E70000199009A007891420ED1401E012806D9C01E05D1AE480168887C0CF033FEB8E0B2
:201E9000002011F01BFEB4E0012804D0022815D0042819D034E1A54801680A7A1BF802003F
:201EB000307015F0B9F83918A06815F0B1F818B915F0B2F84844A060012099E0052030704A
:201ED00002210098A97016E10620994930700A68907C0CF007FE8AE093494878002800F0E2
:201EF000BA8002F009FA14F0EBF80290016801914C688D49887814F0E3F8039014F06EFBC6
:201F100010F0070F7AD0A87807F078FA0090476801990BF0C1FD022870D000990A78012A86
:201F300004D0022A24D0042A40D064E07F4B19680A7A1BF80230337018B915F06DF848449D
:201F5000B8603869C17E01F0EF01C1763869C17E41F08001C1763869C17E01F0F00141F0A5
:201F70000201C176A06839694044C86101203FE00521317018B915F04FF84844B860386957
:201F9000C17E01F0EF01C1763869C17E41F08001C1763869C17E01F0F00141F00201C176E4
:201FB000A068396940440862022021E00621317018B915F031F84844B8605D480168887CD9
:201FD0000CF090FD3869C17E01F0EF01C1763869C17E41F08001C1763869C17E01F0F001E5
:201FF00041F00201C176A0683969404408620420A87000987FE0002011F060FD03980299E7
:20201000884226D001984B490278802A12D1082030700978012903D043484178022903DB29
:2020300021690120C87210E0DAF8280022690178D1720AE0072030700978206901290EBFC8
:202050000122DAF828104A78C2720298364A8179917001984FE014F0C1FA10F0070F55D076
:20207000A87807F0CBF904462078D4F804A0012804D0022817D0042826D047E02B490A68E6
:20209000107A1BF80010317014F0C6FF3918DAF8080014F0BDFF20B914F0BEFF4844CAF846
:2020B0000800012025E00520307014F0B5FF3918DAF8080014F0ACFF20B914F0ADFF484476
:2020D000CAF80800022014E00620307014F0A4FF3918DAF8080014F09BFF20B914F09CFF62
:2020F0004844CAF8080012480168887C0CF0FAFC0420A870204605B0BDE8F04F0AF04EB886
:2021100005B0BDE8F04F002011F0D8BC05B0BDE8F08F00BF14220020C4800100289A01105B
:20213000F0D8FFFF6F4F0020684E0020104F0020184F0020734F00202DE9F843DFF84804B9
:20215000DFF8485401781D24082984B000F21282DFE811F016020900090009000900B200A1
:20217000590116021602DFF82864DFF828843068036803F10807062207F1080102A813F003
:2021900037FE0622B91C684613F032FE3878C10900F00F02032AC0F38019DFF8FC7339D1D8
:2021B0007079C0F38000814240F0DF813169062202A813F077FA002804D06946484614F083
:2021D00023FF002800F0D1812946684614F018FF0146FF296FD03868807A4C43002818BF55
:2021F00002280BD0012818BF032864D1681C2A5D0119404614F000FF10285CD0E81D071933
:202210006B463A462919404614F0F2FE062269463846A8E100F00F00052862D17079C0F3E8
:202230008000814247D13169062202A813F03AFA002840D06946484614F0E6FE00283AD001
:202250002946684614F0DCFE0146FF2933D03868807A4C43002818BF01280BD0022818BFD4
:20227000032828D1681C2A5D0119404614F0C4FE102820D040F2024011F0F4FAE81D071909
:202290006B463A462919404614F0B2FE06226946384613F0ADFDC148C14A41F20441418032
:2022B00041834186BF480180BF49C04811600121007809F00DF958E1BD4E3068016801F1AA
:2022D000080999F8000010F00F0F1CBF00F00F01062908D000F00F02022A1CBF00F00F0045
:2022F000012840F04D81062209F10201684613F07FFD99F80000AF4FC0F3801800F00F007C
:2023100001283DD1062209F1080102A813F070FD99F800004FEAD01902A9484614F074FECF
:20233000D0B13868807C022818BF03285ED105F10D0102A812F0CEF9002857D0396801208D
:20235000C8720622707940F00400707102A938680C3013F04DFD13E02878814510D10622D7
:20237000691C02A813F09EF950B12878717960F38201717106223868691C0C3013F038FD80
:202390006946404614F040FE00282FD070696946001F14F029FE002828D12946684614F07B
:2023B0002FFE01463868807CFF2920D04C43002818BF02280CD0012818BF032816D1681CBB
:2023D00073692A5D0119181F14F016FE10280DD02919E81D071974696B463A46201F14F054
:2023F00007FE06226946384613F002FDC8E0002818BF0228FAD17069012342466946001F82
:2024100014F0EEFDBCE06C4E3068016801F1080999F8000010F00F0F1CBF00F00F000128B1
:2024300024D1062209F10201684613F0E1FC99F80000DFF88881C0F3801700F00F00012801
:2024500048D1062209F1080102A813F0D1FC99F800004FEAD01902A9484614F0D5FD20B319
:20247000D8F80000C07A022818BF03287DD105F10D0014F0B1FD002877D105F10D0102A8F5
:2024900012F028F9002870D0D8F80000062202A90C3013F0ADFC707940F0040070710622F0
:2024B00002A9E81D13F0A4FC14E02878814511D10622691C02A813F0F5F858B128787179A3
:2024D00060F3820171710622D8F80000691C0C3013F08EFC6946384614F096FD002844D0EE
:2024F0002946684614F08CFDFF283ED0D8F800104443887A2F1920BB887C13F0E1FD8046B6
:2025100098F82601022818BF032800D068BB295D00F00100814228D108F590740622214612
:20253000781C13F0BFF800B3012088F826010622717941F0080171712046694613F058FC28
:202550000EE030692A5D791C001F14F055FD10280BD030696B46FA1D3946001F14F048FDF8
:2025700006226946F81D13F043FC31680A680020107105E0002011F0A1FA862014F028FD01
:2025900005B0BDE8F08300BF6F4F0020AC450020F44B0020CC470020104F0020204A002015
:2025B000204F0020504F0020595501106E4F0020D04B0020144F0020AC4B0020184F0020C5
:2025D0002DE9F84FDFF8BC13DFF8BC23DFF8BC5308700821002010600D23DFF8B40340F22B
:2025F0003532017043808280DFF8A8030560AC7EDFF8A4030470FF2CE97E417008BFFF29F9
:202610002A7F82706B7FC370AE7F0671ED7F457115D1FF2A08BFFF2B11D1FF2E08BFFF2D2A
:202630000DD1DFF878130A7802704B7843708A788270CB78C3700A79027149794171DFF835
:2026500060130278DFF85C83DFF85C93DFF85C730A70FF2543784B7082788A70C378CB70DD
:2026700002790A714079487188F8005088F8015088F8025088F8035088F8045088F80550F3
:202690000020CB490880D9F83440CA49607808702278C9493A70A0780870A2681079C74A3C
:2026B000411E1170E078C649C64A0870E068106008B911F003FA2069C34E306008B911F0D8
:2026D000FDF93068DFF804A301688847326852F8041F50468847BE48BE49CAF82000CAF889
:2026F00024106069BC49086008B911F0E7F9A069BA49086008B911F0E1F9E069B8490860FC
:2027100008B911F0DBF9DFF8DCB2B74C9BF8040013F03EFE0028206075D09BF80500B34E4F
:2027300013F036FE002830606DD09BF80600DFF8C0A213F02DFE0028CAF8000063D09BF8AD
:20275000070013F025FEAB49002808605BD039789BF80000C91C484380B213F019FEA6499E
:20277000002888604FD03878002862D0BBF80210484380B213F00CFEA04A0028506042D0AD
:20279000387813F005FE9E49002808603BD03878400013F0FDFD9B490028086033D03878DD
:2027B0001821484313F0F4FD974A106058B33878400113F0EDFD9549086020B3387800014D
:2027D00013F0E6FD92490860E8B13878000113F0DFFD90490860B0B138783021484313F066
:2027F000D7FD8D4A106070B18C4839780078484313F0CEFD8A4A106028B1387813F0C8FDA2
:202810008849086018B9BDE8F14F08F065B94FF0000B09E013F07CFD0021418081600180B0
:20283000022303710BF1010B39785FFA8BF08842F0D32268694F0120107121680D73206860
:20285000457321688D732068C57321680D7400212068457400202268D172A022216848710A
:2028700003212068C28001720720226850720021206881722821206801224182C2760020C9
:20289000216848770022206880F85E200121226811770120216881F85D000122306802715E
:2028B00031680D733068457331688D733068C57331680D7400213068457400203268D172AD
:2028D000002231684871306882724FF420703168C88008818A7401213368D974DAF80020B1
:2028F0001573DAF800104D73DAF800209573DAF80010CD73DAF8002015740022DAF8001003
:202910004D740121DAF80030DA720023DAF800201171DAF800104B71DAF80010C88008818E
:202930008B720520DAF800209374DAF800103E4AC8741068804739680546086880473968C3
:2029500051F8042F00209047D9F80C101C4B0A881878364902430A802846354A13689847E9
:202970000C21344814F030FB404614F029FB14F023FBBDE8F44F034800784FF4005108F068
:20299000A7BD00BF6E4F0020044F0020B63F0050604E0020084F00202C4E0020E812005046
:2029B0003C4E0020344E0020C48001007B4F00200C4F00206D4F00206B4F0020724F00207A
:2029D0006C4F0020F04E0020F44E00207C4B0020A1630100C1630100F84E0020FC4E00206B
:2029F00080220020E40F0020104F0020144F0020184F00201C4F002014220020684E0020B2
:202A1000004F002084220020804E0020844E0020884E00208C4E0020904E0020C10F0020B3
:202A3000882200208C220020F80D0020544F0020FC0D0020F84D00202DE9F84F0D46E807D9
:202A500088B00CD513F074FC30B100218160DFF8E803006800B1804785F00100E9E12807E6
:202A70004FF01D0BDFF8D46375D5DFF8D4130A68907C13F025FB044604F5907094F82671C2
:202A900007904FF00008DFF8B80301688A7CC146FF2A04BF002011F011F8079A3946304694
:202AB00014F086FA07998246384614F0ADFA0BFB0AFBC0B1BAF1FF0F26D016F80B7006EB4C
:202AD0000B0047F00207411C079107F00100F21D84F8260102EB0B080799062204F590703B
:202AF00013F086F910E00799384614F05DFA002818BFBAF1FF0F07D006F10D00584414F0A8
:202B10006BFA08B947F00207CD480168C87A022818BF032806D106F10D0014F05DFA08B95C
:202B300006F10709002006903B46E18E090905910022A08E0490618E0798CDF80880490820
:202B50000391CDF8049000900020A17914F028FA85F008006DE1E8060FD500210022002385
:202B70000691059204910393029101920091022014F016FA85F010005BE1A8070FD500218A
:202B90000023069105910491039302910191009101223C2014F004FA85F0020049E1680763
:202BB000A84F40F18A80A848817800240794FF2904BF002010F082FF386890F8A00013F0D4
:202BD0007FFA80463868C07A98F82691022818BF032808F5907A06D106F10D0014F0FCF97E
:202BF00008B9F01D07905146484614F00DFA90B33868807A002818BF012804D13146504649
:202C100014F0FEF904E052464946304614F0D0F9FF2836D00BFB00FBF01D00EB0B040622FE
:202C30005146204613F0E4F816F80B00396840F0020906EB0B0000F1010A887E00F00100C4
:202C500088F826010622386800F1140108F5907013F0CEF815E05146484614F0A5F980B13C
:202C700052464946304614F0A3F9FF2809D006F10D010BFB00F2881814F0AEF908B949F0C5
:202C9000020908F12C004B46017806914289120905920122B8F822100491C08807990191C2
:202CB000400803900294CDF800A0002098F8061014F076F985F00400BBE028060FD50021AE
:202CD0000023069105910491039302910191009101223B2014F064F985F08000A9E0E8046A
:202CF0004CD5F11D06F10D0014F056F93868017A012918BF042932D1C17A02291EBF032983
:202D1000817E01292BD1817E00F11402304614F04FF9FF2812D00BFB00F0341804F10D0069
:202D300014F05AF950B9E11D04F10D0014F034F938680622E11D143013F05AF83868C07AB9
:202D5000022818BF03280AD106F10D0014F044F928B938680622F11D0C3013F049F83B485D
:202D700042683B4800784FF480510FF06FFE10B18E200CF0B5FC85F480505AE0A80505D5F8
:202D900013F0C6FB334901200860FEE7680504D50AF003FC85F480604BE0680405D58120CB
:202DB0000CF09EFC85F4804043E0A90440D52A4C206810B1002010F081FE284E4FF0FF300D
:202DD000206014F0E5F83168254C51F8202F684690472449244B486A8A6A00900192029321
:202DF000C86A0268086A0392ADF810000A6B1178002904BF5068002805D19068002804BFE8
:202E1000D068002806D02170506860609168A160D068E06021463468144A266814486B46F5
:202E3000B0471449086004F085FA85F4005000E0002009B0BDE8F08F204F0020AC4500200D
:202E5000184F0020104F0020684E0020784E00206E4F0020FC002043044F0020F04E002093
:202E700068450020DC0B0020316301002C4D0020701D0020EC4E002000B5ADF11C0D8DF838
:202E90000F3002928DF80E10ADF80C0000208DF8100083E19DF80E00102805D10299B0489E
:202EB00010220AF095FEA9E118208DF81000A5E19DF80E00102805D10299AA4810220AF0FC
:202ED00087FE9BE118208DF8100097E19DF80E00042804D10298B049006808608EE11820EE
:202EF0008DF810008AE19DF80E0001283CD1B1480078012834D0B04800788DF814000298A8
:202F1000AD49007808709DF8140070B1AA48007858B9B948017850200FF0D6FEB94902466F
:202F3000102009F00BFFC0B26AE19DF81400002840F06481A0480078002800F05F81B24958
:202F5000102009F0FBFEB1490978814204D89A4900200870152053E1012013F0E3F84DE114
:202F700012208DF8100049E118208DF8100045E19DF80E0001282ED18F480078012826D024
:202F90008C4800788DF8140002988A49007808709DF8140068B18748007850B99648017876
:202FB00050200FF091FE97490246102009F0C6FE24E19DF81400002840F020817D4800780A
:202FD000002800F01B81012013F0ACF816E112208DF8100012E118208DF810000EE19DF863
:202FF0000E00022804D1029889490088088005E118208DF8100001E19DF80E001F2821DCBC
:20301000844800211F220CF0E3FC02999DF80E2080480AF0DDFD9DF80E007F4908707648FC
:20303000017850200FF050FE02467B48794B00787A49009010200193012309F07FFE8DF8CD
:203050001000DBE018208DF81000D7E09DF80E001F2821DC724800211F220CF0B9FC0299C2
:203070009DF80E206E480AF0B3FD9DF80E006D4908706148017850200FF026FE024669489E
:20309000674B00786549009010200193002309F055FE8DF81000B1E018208DF81000ADE005
:2030B0009DF80E00012808D102980078042804DC02985D4900780870A0E018208DF81000C0
:2030D0009CE09DF80E00012808D102980078032804DC02985549007808708FE018208DF84E
:2030F00010008BE09DF80E00062806D10298504902680A608088888080E018208DF8100059
:203110007CE09DF80E00012808D102980078072804DC02984749007808706FE018208DF857
:2031300010006BE09DF80E00012808D102980078032804DC02984049007808705EE01820D9
:203150008DF810005AE09DF80E00012804D102983A490078087051E018208DF810004DE0B7
:20317000CC210020DC210020BDF80C002D280EDA9DF80E0002280AD102983149BDF80C207A
:203190000388102009F0DAFD8DF8100036E002208DF8100032E0C04678210020BDF80C00A0
:2031B000A0F201300C2809D91A383FF4E1AEE938C9D0D9E7FD0F0020FC0F002001A151F856
:2031D00020008746A52E0000C12E0000DD2E000079310000F72E0000EF2F000009300000FF
:2031F0005D300000B1300000D3300000F530000013310000353100006C2100209DF810002D
:2032100007B000BD99450110F17F0110694F0020FE0F0020B80D0020001000200945011041
:20323000D70D0020021000207C2100207D210020DF1000207E2100207F210020031000200C
:20325000D1330100FEB5DFF84803DFF848430578DFF84403DFF84473DFF84423DFF844138D
:203270000D2D41F2064641F202434CD8DFE815F08E010E000E000E000E0068009C00DF0073
:203290000C0145014501630163016A01206041F20446DFF814034188B1421FBF478BB74202
:2032B000478EB74203D11680DFF80003B6E00029DFF8FC6211804FF4A0573AD0491E3DD0AF
:2032D000491E36D040F2FE3CB1EB0C011CD0091F01291FD94FF47F7CB1EB0C011CD04FF410
:2032F000406CB1EB0C010FD0891E01290CD9091F0AD0491E01290DD940F2F932891A012931
:2033100017D9091F08D039E1022D14BF1780A94E2660EAE0A84EFBE7A8490A68157A012DBB
:2033300003D1438043834386F2E7478047834786EEE7002010F0C2FB832023E18F2021E116
:203350009F4D698811800029206050D0491E67D0491E4CD040F20240091A23D0491E46D0FE
:2033700040F2FB30091A17D04FF44060091A3ED0491E17D0491E012932D9091F12D0491E67
:2033900035D0491E0ED04FF47E70091A2FD0491E08D0C91E06D045E06E8001200BF0F6F966
:2033B0002530A873874839E087494B881380002B20601CD05B1E33D05B1E18D040F2024087
:2033D0001B1A2AD05B1E12D040F2FB301B1A1DD04FF440601B1A0AD05B1E1ED05B1E012BD6
:2033F00040F27D809B1E0ED09B1E16D05B1E76D05B1E12D04FF47E701B1A70D05B1E0CD043
:20341000DB1E0AD00EE0714921606EE0887B4E8025280CBF2720401E88736D48206064E050
:203430008F2060E0002010F049FB84205BE0B978FF2939D020601820664B41431868851CDA
:2034500040F204466B5A13809B1B012B624A71D94FF47F769B1B0FD04FF440669B1B032B16
:2034700084BF5B1F012B0BD99B1E012B62D940F2FD369B1B33D103E0801C41F201434352A5
:20349000226007F0EFFD30E0B978FF2952D020601820504D41432868861C40F20447755AD5
:2034B0001580ED1B012D4D4A70D94FF47F77ED1B11D04FF44067ED1B0FD0AD1E012D84BF22
:2034D000ED1E012D09D9AD1E012D5FD940F2FD37ED1B04D101E0801C4352226005E00020B4
:2034F00010F0ECFA852013F073FD03B0BDE8F0403B480078012107F0EBBF4888108040F2E6
:20351000044290421CBF41F2084290423ED041F60402904211D1334C3348344B0068002554
:20353000CDE900450222324C256855F8086FB04730490880F7BD48881080002010F0BEFAA9
:2035500085201FE04888108002280DD940F20442801A1BD040F6FC72801A05D0083815D012
:203570004FF47F72801AE8D1887B801CC2B2B52AA8BF6620887300204880F7BD002010F01E
:203590009DFA8420BDE8FE4013F022BDF7BD00BF6F4F0020204F00207F670100684E00207E
:2035B000504F0020CC4C0020204A002059550110615A0110B1540110755B0110104F002079
:2035D0009C4C00200DEC00006C4C0020953900002DE80000804E0020313901100561000050
:2035F0006E4F002002000080EC4E0020FD410100F04E0020424F00202DE9F84FD74CA1781B
:20361000FF2904BF002010F059FAA07812F058FD044604F1680504F190062968086810B1D4
:203630000021E1830CE0A87B002804BFA97E002906D13078002801BF207F0128608CE0832D
:203650002189E08B4118491C6181204613F09CFC01281EBFC2480178012904D12189002052
:20367000491CE08361814FF6FF77A87E01280DD1AA8B6189208913F083FC38B121896089E2
:203690004A1C93B298421BD0A88B0FE03078012816D172886189208913F072FC80B12189F7
:2036B00060894A1C93B298420AD0708892B2904206D03818608180B213F05EFC3F18E7834D
:2036D00004F5967999F8040020B120890021401CE183608104F12E07A87E01283ED12289CE
:2036F000A88B521C92B2904238D1608104F18601204613F03DFCA88C608400212177E183C6
:20371000E08961894118A181A88B218913F034FC8046B988288C6A8C01FB0808E88C8A42BE
:2037300004BF3989884202BFAB8CF9888B4207D000090090AB8CA1795208002013F0A0FC0A
:20375000A87F3870698CB980A88CF8802046E98C398113F009FC0220A87601E0B7F80480BF
:20377000B4F81EC022687F4ED2F80CE00CF1010000FB08F340F6C41000FB03F18E44C2F829
:203790000CE03668DFF8E0E13678BEF80080774AB609032E11D1D67BF60748BF4FF00008E4
:2037B0000BD408F101081FFA88F6012E12BF668AB9F8066006F2DC5600E0668A5E434FF49C
:2037D000C87AB6FBFAF6761C6661AEF80080A3614FF0180894F806A084F820C008FB0AFA7F
:2037F000DFF88CC1DCF800E023680EF1080656F80AB0C3F810B094F806A008FB0AFACDF8C8
:2038100000A0D3F80CB0D4F814A0ABEB0A0ADDF800B046F80BA094F806A008FB0AFA56F852
:203830000A609E600EF10C06A37908FB03F30EF10C0EF65C06F0F00646F002060EF80360EC
:203850004FF0000ADCF800E0A6790EF1020308FB06F623F806A0474BA6791B68760103F1D9
:20387000140AD4F814B05AF806A00AEB4B0A03F1140B4BF806A0AD7E022D0BD1A5796D018A
:2038900003F1140697F800B056F805A000FB0BAA46F805A0BD88D27BA779D60737D508FBA7
:2038B00007F70EF10802D659A6F5A86A0EF1080646F807A0A77908FB07F7D2592768511ADD
:2038D0003961BA6003F11402A1794901575807F5F667575003F11401A27952018958C9F8EE
:2038F00000106843244A156BA779296803F11C067F01401AA0F51670F0512049A07903EBA2
:2039100040100B78012B14D10121C17214E003F114027F01D1592A464243A1F5E661A2F54D
:2039300016729142DDD30821204613F0A5FB012011E0916A4A78C272A179DCF8000008FB46
:2039500001F281182268516007200D49087020460CF0F0F80020BDE8F28F00BF684E002076
:20397000784F0020084F0020A62100205C4D0020804E0020844E0020C4800100734F002022
:203990006F4F00202DE9F84FC24DDFF80C832968DFF808A3887C12F093FB044628680021C5
:2039B000417104F12E062868BD4D0FF09DFA0120607104F5937998F80100401C88F8010087
:2039D000182780200BF0CAFE20606969C160B548018949007180C079B18840003070490066
:2039F0003089B180000130813146204613F0C0FA0520A081204613F0B7FA286813F0B0FAE4
:203A1000062210F8081FC1F3801189F80010811C04F5907012F0ECF92968A34D0A680020D9
:203A3000107141F60202A1792868794342520021A3797B430344001D5980A2797A438150DF
:203A50000121204613F088FAA27929687A430A449073A1792868794301440020C873A1796F
:203A70002A6879431144887BF072DAF80020A079296802EB40137843084414310361A07989
:203A90008A4A78430A50A07913F062FAA179DAF8002049015050A1794B01D05820B9072130
:203AB000204613F0E9FAF0E0DFF804B2DBF8000000EB011013F048FAA179DBF80020DAF85A
:203AD0000000DFF8F0B102EB0113021D4901535004F16801A3795B01D2580A60A3795B016F
:203AF000C2588A60DBF81410097894F806E0CA074CBF102200228B074CBF202300235FEA4C
:203B1000417C4CBF4FF0400C4FF0000C09074CBF802100211A434CEA020200EB4E100A43ED
:203B300042F00F020272DAF80010A07901EB40120B215172DAF80000A27900EB4211042047
:203B50008872DAF80020A17902EB41105A4A1378012B02D10121C17203E0DBF828100A781E
:203B7000C272DAF80000A279636A00F10C0152018B50A17900EB4110A16A0174DAF8000073
:203B9000A27900EB4211A06A000A4874DAF80010A07901EB4012A06A000C90740821474ADF
:203BB000107807F095FC2168A2792868CB687A4302449360CA68CB680A618B6000F10C02CE
:203BD000A17979430C30535C03F0EF034354A0792968784301F10C020C31135C03F07F0312
:203BF0000B54A0792968784301F10C020C31135C03F0F00343F002030B54A27928687A4360
:203C10001044417B01F0F00141F001014173A079B688DAF800204FEA401C40F6C41046434A
:203C3000DBF83000016802F11403761AA6F5167643F80C60A07902EB4010C17C01F0F0012B
:203C500041F00401C174A179286822684F43C1195160B9F83A001B2804BFB9F83C001B2877
:203C700009D1B9F83E00B0F5A47F04BFB4F86601B0F5A47F03D014212046FCF7CDFF10497F
:203C900008200870A27988F80220BDE8F14FFEF707B800BF184F0020684E0020844E002010
:203CB000AC4B0020844C0020804E00205C4D00208C4E0020C4800100734F00206E4F002038
:203CD0006F4F00202DE9F04F09AFADF13C0D08900A92388809911E46ADF81800101C08BF60
:203CF000002000F07581017800274FF0010B401C4FF0FF39B846DA460A9061E1252940F078
:203D100056810178401C0A902D2918BFADF8068004D10178ADF806B0401C0A9030291CBF22
:203D30004246434604D10178401C5A465B460A902A29CDF800804D4617D1049330680A9BF6
:203D5000CDF80890C01C20F00300001D306050F8044C1978002C009403F101000A9018D5F5
:203D7000ADF806A06442009413E044460AE0600000EBC4004018A0F130040A98017800946C
:203D9000401C0A90302901DB3A29F0DBCDF8089004932E2929D10178401C2A290A9011D1D1
:203DB0003168CDF80880C91C21F00301091D316051F8045C002D48BF454601782B46401CAE
:203DD0000A9011E0454643460AE0680000EBC5004018A0F130050A9801782B46401C0A9092
:203DF000302901DB3A29F0DB02930AB1224604926C2904D04C2918BFADF8048004D10178D6
:203E1000ADF804A0401C0A900BA8CDF80C800FAB07906429059300F0828069297FD0BDF851
:203E300018C075296DD0782969D06F2965D070294ED063293ED0732922D00A98401E0A909F
:203E5000099801281AD966490C68B5F1FF3F03D0A84288BF6D1C05D86FF00041814294BF6E
:203E70000D1C099D029508A80AA932466B46A04709993F18091A0398099165E0454617E041
:203E90003068C01C20F00300001D306050F8040CBCF1010F014608B94FA00146079112F0F1
:203EB00055F90390B5F1FF3F4FD0A8424DD9039528464AE03068C01C20F00300001D30609A
:203ED00010F8040C8DF82C005D46039558463CE0082035680490E81C20F00300001D3060F7
:203EF00050F8041C082210230FA80CF0F7F9401E079040210170079823E0082302E01023A1
:203F100000E00A233068C01C20F00300001D306050F8041CAA42BCBF2A1C04920DE0306820
:203F3000C01C20F00300001D306050F8041CAA42BCBF2A1C04926FF009030FA80CF0CEF945
:203F500007900599081A0390009C241ABDF8065000945DB906E008A8202109AA10F0D0FE80
:203F70007F1C009C641E0094F5D50398401EB0F1FF3F03900FD1BDF8060001281CD1009866
:203F9000401E009018D408A8202109AA10F0B8FE00987F1CF4E70798017809AA08A810F054
:203FB000AFFE0798401C079003987F1CDEE708A809AA10F0A5FE7F1C0A980178401C0A9005
:203FD00000297FF49BAE089808B14146017038460FB0BDE8F08FC046286E756C6C2900C068
:203FF0007C800100BB482DE9F84F0025BA4CB849056094F8E200002800F06581012800F03E
:204010002F81B64E02283CD0032840F05C8151F8250CD4F8B8100029A0F5C060C4F8D400F2
:20403000B8BF49420028B8BF4042814226DA4FF08057D7F8A4014568B4F8BC0030214FF457
:204050007F42082300903046A847D7F8A4014568B4F8C00004214FF4F80212230090304645
:20407000A847D7F8A401B4F8D070456820214FF440620A2330460097A847012584F8D8501B
:204090001CE151F8258C12F043FA2F4600B901273946934F38680028FCD0B146012609F177
:2040B0000409D9F82CA03E6009B112F037FACAF30720C4F8BC0012F02BFAAA4600B9B24697
:2040D0003B68002BFCD0D9F800B0BAF1000F3E6001D012F023FACBF38440C4F8C00012F06D
:2040F00017FAAA4600B9B2463B68002BFCD0D9F81C90BAF1000F3E6001D012F00FFAC9F3F7
:204110008120C4F8D000B8F5C061C4F8B81000F09C8094F8D80068B9C4F8D410D4F8C00053
:20413000C4F8C800D4F8BC70C4F8C470D4F8D030C4F8CC30D4F8D400D4F8BC30002854BFEC
:2041500002226FF0010204F1C8010F6800EB40008018421000EB927207EBA2000860D4F8C8
:20417000C810C4F8C43000291CDD1E293CDDD4F8CC0030B93429B4BF15391E21C4F8C810B3
:2041900025E02A29BABFD4F8C8000B381E20C4F8C800D4F8C4003F28B4BF401C3F20C4F8C4
:2041B000C4001FE0D4F8CC00032812D011F10B0FC6BFD4F8C8000B30301CC4F8C800D4F87B
:2041D000C4000028C4BF401E051CC4F8C450032508E011F1150FC6BFD4F8C8001530301C31
:2041F000C4F8C800C4F8CC504FF08057D7F8A401B4F8C43030214FF47F4245683748009315
:204210000823A847D7F8A40104214FF400321123456832480096A847B4F8C860D7F8A4013E
:2042300004214FF4F802122345682C480096A847D7F8A40120214FF440620A23B4F8CC6092
:20425000456826480096A84701E084F8D85040F2FF50404502D8801C40452FD2082030E0EF
:2042700051F8251C1F4F4BF2F5204843060A3868C0F3814001280CD11B4800680068804735
:204290000FF05AFA12F050F93111C010484306EBE03694F8E50030B91448006820F07F40DF
:2042B0003618760801E084F8E5501148310C0660012741600F4D8760287808B90B2000E01C
:2042D000052084F8E40003F071FBBDE8F88FC0462D400C402C500C40C005002000A00C4066
:2042F00000800C40B43F0050EC010010102009403C600C40F97E01002DE9FE4FDFF8D49229
:2043100099F8011011B900200FF0D8FB12F084FE0746002407F6C4170025AF4EDFF8BC822B
:204330000EE0284611F0CCFE417939B1326881791155641C394612F003FEE4B26D1CEDB2E8
:2043500098F800008542ECDB99F801108C4205D000200FF0B3FB822012F03AFE99F80100AF
:20437000012840F01881002501E06D1CEDB298F80000854280F20981284611F0A1FE07465F
:2043900078790028F1D03168B8790A7890421CBF00200FF093FBB879F5E0306810F80800DF
:2043B00011F08EFE00684268DAF808109068814204BF2F4608F1010800F0FC80FEE030688D
:2043D000077801224FF4C07110E0D9F8043003F5AD74835C01FB03FC01FB07FA34F80CE0BA
:2043F00034F80A40A64538BF1F46521CEBB29A42EBDB007811F064FE00240068D0F804A070
:204410004FF4C075444526DA3068005D11F058FE0068316842680B5DD9F804006B43C118D0
:2044300001F18203187800283DD0B1F80AC058880CF1010E864518BF844534D15CB1DAF882
:204450000810906801F5C241A83112F0E1FD00283FD13068075D4FF6FF7012F06DFD83466D
:20447000384611F02DFE5E49006845680868D9F804103A4630F812303C464FF4C07001F1A0
:204490000E024443105BB3EBD00F75D24FEA5B03002040F6C4114B4300934446514B0191AB
:2044B0000293804630E0987B012812D148891B8A411C994218BF98420BD1002CCBD0DAF88E
:2044D0000810906801F5C241A83112F0A1FD0028BFD0641CE4B295E7F8B211F0F1FD0168FF
:2044F0000A78802A02D12B69009A5A610978402908D1029980790A6802EB4011009800F530
:20451000A060C86108F10108A04535DA306810F80800F9B28142F5D001464FF4C073594338
:20453000D9F804305A1803F5AD73D289595A53088B4202D2521A9442E4DA11F0C1FD0168AA
:204550004A68019B9168AA684FEA5B00A1F6C41103FB002012F05CFD0028BDD020480068F4
:204570008DF800709DF8001030F81120521C20F81120306810F80870194801680022FBB2D0
:2045900021F81320F8B2BDE8FE8F00200FF096FA822012F01DFD99F80110306812F0C8FC76
:2045B0003068007811F08CFD00270068D0F804A04FF001087D1CA045FFF6EFAEFFB2002F1E
:2045D0001CBFE8B20028A0467FF4F9AE306807780FE700BF684E0020004F00207B4F002033
:2045F00084220020844E00202DE9F04F8246DAF80070DAF804600C465FEA0208ADF11C0DF2
:2046100014BF00214FF0FF31DFF84092484611F0FBFD002818BF0B2040F0158100258F480B
:204630008C4905708A48FC60524612F0BEF8317B272012F0BCF8B8F1010F07D06570022072
:204650000FF0D0FF06200FF0CDFF01E0012060702078012840F2AA80801E012868D9801EF6
:20467000012833D9801E012800F2DE8012F097F883464FF0805000F5EE77D0F8DC01A3785B
:20469000466A009321782846062908BF0120019001200290A068228AE1686368B0478146DF
:2046B000584612F041FCB9F1000F40F0BF80B8F1000F02D011F054FB02E050460FF018FE7E
:2046D000002800F0A3803868806A2AE012F067F883464FF0805000F5EE77D0F8DC0101239F
:2046F00006680093A168A27860682478AC46042C08BF9C466346B0478146584612F014FC40
:20471000B9F1000F40F09280B8F1000F02D011F027FB02E050460FF0EBFD002876D0386874
:20473000406880474C49C1F8B0510D6081467DE012F035F883464FF0805000F5EE77D0F8F1
:20475000DC01E38A86690093E0680190208B0290A0780390207D04900121059122782846CB
:20477000022A08BF081CE1786268A368B0478146584612F0D9FBB9F1000F57D1B8F1000F19
:2047900002D011F0EDFA02E050460FF0B1FD00283CD03868006A80475FEA000946D1E07864
:2047B000A168E28A23690AF051FCBFE711F0F7FF83464FF0805000F5EE76D0F8DC01E38AC1
:2047D000C7680093E0680190208B0290A0780390207D2946049001200590257805B901464E
:2047F00008466268A368E178B8478146584612F09BFBB9F1000F19D1B8F1000F02D011F003
:20481000AFFA02E050460FF073FD08B914201AE03068406980475FEA000907D130680269D4
:204830002169E078904781E74FF0FF39B8F1010F05D002200FF072FC06200FF06FFC0348D8
:2048500011F0BBFF484607B0BDE8F08F78090020B00900203D4D010050450240BF22002047
:204870002DE9F0410446A078ADF1180D801F00F02281C01E00F00881DFF84882401E00F044
:204890008880914E401E6FD0401E00F00F81801E3DD0401E40F011814546287A697AB8B95A
:2048B0006878002831D0A08812F03AFB071C00F00481A07A40080FD3787968B1E168890ABE
:2048D0000AD2B91D01AA08F035FB0A2804D10321A08812F021FBF0E0287B022802D1A07A48
:2048F0000009F4D3A088797904F1080203F0ECF9A869002800F0E1804368002B00F0DD803A
:2049100000210A46A0889847D7E00521E0E7607806281ED1A08812F003FB071C19D04546B7
:204930000E352878401E0FD0401E07D0401E10D1002140F209400A4600F0FEF9A188387827
:20495000052212F0E5FA04E0A0887979002203F0BBF93068002800F0B0804368002B00F0D2
:20497000AC8062780221CDE711F0EAFC002800F0A480306850B1076847B120690090618924
:20499000227B637BE01C3C46A04796E0608901219FE760780026002867D1A079400864D32A
:2049B00008F11C00006800285FD101A831460E2211F01BFFA08812F0B3FA071C7DD0606997
:2049D00040B97879B91D06228DF80A0001A811F00FFA19E06569287C062205F111018DF87D
:2049F0000A0001A811F004FA07F10C00B91D062211F0FEF9B81D062205F1110111F0F8F904
:204A1000287C40F002007871A079C00839BF387900F0FD00387940F002003871A0790009A2
:204A300039BF387900F0DF00387940F020003871A1799DF81120C1F3800010438DF8110047
:204A5000080905D39DF8110040F008008DF8110001A8214601F03CFF30B9404600780221A3
:204A700006F036FD304629E015264546A86920B3436813B3A088627801219847EEB1A869B0
:204A90004368032132463DE7E078211D002208F051FA0A2811DA410001EB800004F10C02D3
:204AB00025300421C0B204F077FF06E0A088217B08F0A4FF01E00DF0BBFA012006B0BDE83C
:204AD000F081C0460802002020020020D0B5ADF1280D039102900398C00B43D311F05FFE8B
:204AF00007908648006804900498002832D00498283090E80C000A214FF0E04011401840D4
:204B100000D1002926D10498283003C88DE8030004989DE8180000F1280106C92830A243FE
:204B3000994380E80600079812F0FEF90498806898B19DE8C000002F00D1002E0DD09DE8E1
:204B50000C0004988468049804990069B1F93C10A04702E0079812F0E7F9039820F4804060
:204B70000390C2E00398800F74D311F018FE079063480068006801460420884700283ED0E6
:204B90000298007C00283AD05E480068002836D00298C06809905B48006805905A4800687C
:204BB000006B8047069005980699884203D205990698401A02E005990698401A0299C86071
:204BD0000298C168090BC16002980999C068884206D202990998CA68029980184008C860B6
:204BF0000298C06840F6C411814204D30298C068B0F5FA7F03D2029840F6C411C160079824
:204C100012F092F90DF0B4FAA8B1029880690990099C02986FF4807100224FF00073A04789
:204C30003A4811F01DFC10B10BF0DEFD03E0039840F002000390029840690890089C0298D5
:204C5000002100224FF08063A047039820F0005003904AE0039880080BD306F0E9FD2C48EF
:204C700010F010FF002840D0039820F0020003903BE00398000938D30EF08CF800282ED02B
:204C9000244903200870244811F083FD04F010FF022000210EF05CF802200FF03FFA1120EC
:204CB00007F01EFA1D48007820B91D480068383011F083FD1B48007810B90E2007F010FA96
:204CD0001948007828B118490020087005200FF025FA1748154908600E49002008700BF0C7
:204CF00083FD039820F008000390039818B10399104811F06AFD0AB0D0BDC046042100208C
:204D1000E0010010B02100208C010010F0200020F8200020BC21002018200020B82100204E
:204D3000AC210020A67F0100C9210020C021002025A30000381F00207CB5954D1446024651
:204D50000026A2F58062182A1AD8DFE812F016010F010701FE00F600F000E800E2001900B1
:204D7000D600CE00C600BC00B0001900A800850073006C0057004E0043003A002D002400B5
:204D90002D2880F28A80022940F0878021880EF017FB0646FAE0012940F0F780002C00F004
:204DB000F4802A461232B8E0102940F0EE80002C00F0EB80284650301022214611F018F82D
:204DD000E4E0012940F0E180002C00F0DE802A46921DA2E0262940F0D880002C00F0D580E1
:204DF0002A4602F160002622E7E7012940F0CD80002C00F0CA802A46521D8EE0602900D116
:204E100044B9012940F0C180002C00F0BE802A460D3282E005F186002146602210F0E8FF33
:204E300001206873B2E0012940F0AF80207812F06BF8ABE0012940F0A8802078022800F38C
:204E5000A4802A460C3210702078022814BF301C012012F055F899E0072940F09680611C33
:204E70006846062210F0CAFD20786946324608F061F804460A2C10DA12F03EF840B9204674
:204E900004F050FB50200EF037FE0CF02FFE7DE02A4601202C32105578E0022676E0012946
:204EB00073D12178042970DA2A460E3254E001296BD12A462178D07B0028D17366D12078B5
:204ED000012863D1E1E701295FD1217807295CDB10295ADC2A460B323EE0012955D1217820
:204EF0000A2952DA2A46093236E001294DD1217802294ADA2A4608322EE0002945D111F05A
:204F1000FBFF10B910F0FEFFBCE72A460121103222E0012939D12A460A3221781CE00129A9
:204F300033D12178022930DA2A46D21D14E010292BD12A4602F140003EE7012925D1217886
:204F5000022922DA2A46121D06E001291DD1217804291ADC2A46D21C117017E0012914D1DC
:204F70002178022911DA2A46921CF5E702290CD120882A461432108008E0012905D1217801
:204F90000229DCBF2A1C521CE6DD182630467CBD0802002010B50B7884074CBF43F0020397
:204FB00003F0FD0304064CBF43F0800303F07F0304074CBF43F0080303F0F70384064CBFD8
:204FD00043F0200303F0DF0310F0AA0F0B7003D0107840F00C0003E018B9107800F0F300AC
:204FF000107010BD2DE9F8430D4600272878022814461E4669D1696808784978DDF8208040
:2050100000EB012080B25FEA08021CBFB0F5285F0B205DD14FF42851401A0AD0401E23D04E
:20503000401E4CD0401E27D0401E2DD0A23846D04BE0DDF82490E86811F0D9FB80B2A0EBB0
:2050500008024A45BCBFA0EB08001FFA80F909EB0800162806DAA6F800904A46E86800EBF4
:2050700008010DE00D2732E0E8680088022131802070000A60702AE0062030800622E96875
:20509000204610F0B5FE22E0E868B0B1082131800288227003881B0A63704188A170428817
:2050B000120AE270818821718288120A6271C188A171C088000AE07109E0308007E001213E
:2050D0003180E8680278227001E0378001273846BDE8F2832DE9F0470F468146387800241E
:2050F000022890461D4671D17868089E01784078DFF8E0A001EB002189B24FF42852891A45
:2051100008D0491E2BD0491E50D0491E3BD0A3395AD05BE0F86811F06AFB80B2B04204D34A
:20513000A919162903DB0D2451E007244FE0FB682A464146981910F05BFEAD19F868ADB2DB
:20515000C5F116020021401911F04FFBDAF8000000281CBF0268002A39D0002123E08EBBCD
:20517000022DE0D198F8000098F80110FA6800EB01201080DAF8000000281CBF0268002AA7
:2051900025D001210FE0EEB9062DCCD1F8680622414610F02DFEDAF8000000281CBF026809
:2051B000002A14D003214846904710E056B9012DB9D198F80000002813BF0128F968087005
:2051D000802404E00B2402E0032400E001242046BDE8F0879C2200202DE9F04385B011F813
:2051F000017B0446082F04F1FD0004F1FC0804F1760504F5A076844A844BDFF8149213D03B
:20521000092F21D00F2F2FD0112F01BF287801286878102840F0D5800A78327648787076E2
:20523000012184F83D11EBE00025521C4E5D5F5D3E434E55575D3E4046556D1C082DF5DB2E
:2052500020460BF025F974E00024571C0D5D1E5D35430D553A5D15400555641C082CF5DB4B
:20527000022088F80000CBE098F80100820704D410F0110F57D01A2266E008784A7800EBE9
:2052900002203080CA78887800EB022070804A79087900EB0220B080CA79887900EB02201B
:2052B000F080087A30724A7A887A02EB00227281C87A0A7B00EB0220B0818A7B487B00EBCA
:2052D0000220F0810A7CC87B00EB022030828A7C487C00EB022070820A7DC87C00EB022002
:2052F000B082487D897D00EB0120F082494801788A0658BF1A2212D504F5A67004907189B2
:205310000391307A029021890191F0880090B3887288318820460AF01FFEE0B11E2298F89D
:205330000100410710D40F2088F815002046FBF793FC002864D199F8000005B0BDE8F0430A
:205350004FF4804106F0C4B8204605B0BDE8F0430F21FBF76DBC7088A882B188E9820221A0
:20537000F0882883297400206882A18EA88AC91DE981618EB0EB510F02BFE88AA18E88428C
:2053900002BF288BE18EB0EB111F18D02878012804BF68780F2805D0687918B10F21A972FA
:2053B000FE2127E0FC212046FBF736FCF0880090B38872883188A079FBF732FC20E01021B0
:2053D00018E0491E204611F093FD032F18D1A878042818BF0D2813D16E78142E18BF0E2ED5
:2053F0000ED12F782046FBF71FFC012F06BFAE72FD213146204605B0BDE8F043FBF70CBC4D
:2054100005B0BDE8F08300BFEC4D0020542200206E4F0020144E002000B5ADF1240D02908C
:20543000029840880CF00CFD7F4908807F487E4900780988884240F3E280029800797F28F5
:205450000DD102987B490089794A00900878001DC1B210686BA300220FF013FCCFE07248F5
:2054700075490088096811F8300001281FD102980079032840F0C38070480088ADF80C0071
:205490006D49694809680088022201F830206C48017850200DF018FC0221009101900298A2
:2054B0006849428803AB102007F048FCA7E05E4861490088096811F83000022872D1029838
:2054D0000079072829D102980089002825DD02980299554B584AC068C9681B881268407828
:2054F000097802EBC30200F0FF0001F0FF0101EB002151800298504A02994B4BC068C968ED
:2055100012681B88C078897802EBC30200F0FF0001F0FF0101EB0021918002980079072833
:2055300003D1029840781A2803D002980079012865D13D4940480988006800EBC100408833
:2055500000285CD038483C4900880968032201F83020354938480988006800EBC100408810
:20557000ADF80C00304934480988006800EBC1008088ADF80E0002208DF81000F1208DF8C8
:205590001100FF208DF812002D48017850200DF09BFB009002982C49428803AB102007F005
:2055B000CDFB2CE0204824490088096811F83000032824D102980079092820D10298008988
:2055D00000281CDD02980299174B1B4AC068C9681B8812680079C97802EBC30200F0FF00CD
:2055F00001F0FF0101EB0021D1801248104A0078001DC1B2106807A300220FF042FB09B057
:2056100000BDC0464D54552053697A653A20256400C046C053696D706C6520537663204641
:205630006F756E6400C046C02A0E00202C0E0020180E0020C3220020AC2200204D7F010026
:205650009421002079050100276701000EB58DF801108DF800008848006830B94FF0804059
:2056700000210BF0BBFE84490860834800680021002256A30FF005FB97E07F4800680021DB
:20569000002256A30FF0FDFA7B4800680221002255A30FF0F6FA97E09DF8010001280ED17D
:2056B00075480068002100224CA30FF0EAFA724800680221002251A30FF0E3FA84E06E484F
:2056D00000680021002245A30FF0DBFA6A480068022100224FA30FF0D4FA75E066480068CA
:2056F000002100223DA30FF0CCFA63480068022100224DA30FF0C5FA01208DF804009DF86D
:205710000400002860D09DF804000028FBD15BE0594800680021002230A30FF0B2FA5648ED
:2057300000680221002244A30FF0ABFA01208DF804009DF80400002846D09DF804000028DF
:20575000FBD141E04C4800680021002223A30FF098FA49480068022100223CA30FF091FA0F
:2057700001208DF804009DF8040000282CD09DF804000028FBD127E03F48006800210022EC
:2057900016A30FF07EFA3C4800680221002234A30FF077FA01208DF804009DF8040098B1C5
:2057B0009DF804000028FBD10EE09DF80000801E3FF472AF801E3FF460AF401E8ED0401EDD
:2057D000A6D0401EBED0D7E70EBDC0463E3E3E535441434B20415353455254002A2A2A45E3
:2057F00052524F522A2A2A003E3E204F5554204F46204D454D4F52592100C0463E3E204988
:205810004E5445524E414C204657204552524F522100C0463E3E20494E5445524E414C20BD
:205830004552524F522100C03E3E204943414C4C2041424F525421003E3E204943414C4C32
:205850002054494D454F55542100C0463E3E2057524F4E47204150492043414C4C2100C08A
:205870003E3E2044454641554C54205350494E4C4F434B2100C046C0180E00202DE9FE4F64
:2058900005467B48002400680094C00905D37948007810B920200EF05FFD012D40F0E280CD
:2058B000DFF80092D9F8DC00012840F0D8800220C9F8DC0010F04CF901200EF04DFD5FEA5B
:2058D000000805D00120C9F8DC0010F04DF9CBE010F077FFA34602906748684DC0F800B06F
:2058F000A86A016801208847012804D158460AF0A7FE012000906248624FC0F800B03868DE
:20591000112010F023FE00B10124102010F01EFE08B144F002040F2010F018FE08B144F0DE
:2059300004040B2010F012FE20B12868564E016B308888470A2010F009FE20B12868534EE9
:20595000016B308888475248012606602868816944F0200088474F48066010F0F1FD00F0A5
:2059700001010191400814D2286A81684A4888478246BAF1040FF7D0BAF1010F04D1286A0A
:2059900042684548032190474449086820F003000860584600F09AF92B683868986B80472F
:2059B000019801280CD0BAF1010F04D1286A42683948314690473949086840F00300086011
:2059D0002F48066028684169204688470B2010F0BDFD20B128682C4BC16A188888470A20EA
:2059F00010F0B4FD20B12868284BC16A18888847274806600322C9F8DC20264BC3F800B0E5
:205A10002868416B204688470128F9D1386804200EF0A2FC0446184806603868144800683E
:205A30008009FBD30098012802D130460AF008FE10F074FD08200EF08FFC07460298C9F82B
:205A5000DC6011F051FA164800880AF0F7FA10F08BF857EA040018BF4FF0FF3804E06FF085
:205A7000040801E06FF001084046BDE8FE8FC04614100940A80600200C400940B80100106A
:205A9000000222432C200940AA7B0100A67B01002820086080010443004003402422084029
:205AB000F47E0100C005002000B5ADF1540D03930292019100900398800805900399022008
:205AD00000EB910006907648006807900699079800EB810008900898069900EB8100099061
:205AF0000998069900EB81000A900A98069900EB81000D900D98069900EB81000E900E9812
:205B1000069900EB81000F900F98069900EB810010901098069900EB8100119011980699DD
:205B300000EB810012901298069900EB810013901398069900EB810014901498069900EB5F
:205B500081000B900B98069900EB81000C905449069882010868002109F03AFF524851491A
:205B70000246096807989047059003980599B1EB900F02D06FF0010090E04C4802460599C1
:205B900007989047019803990CF0F8FD08B1012084E0029803990CF0F1FD08B102207DE0C3
:205BB00043480246019908989047414802990246099890473E480099024689680A9890473C
:205BD0003C4808990A9A03460B98984704900498012804D105980B9951F8200008B103206D
:205BF0005CE0069882000B98002109F0F1FE314809990A9A03460B989847049004980128AA
:205C100004D105980B9951F8200008B1042045E02A4803460899284A0D9898472748099990
:205C3000254A03460E98984724480D990D9A034611989847214811990D9A03461298984701
:205C50001E480D991E4A0346139898470B980021282209F0BDFE1B4803461299139A0B9884
:205C7000984718480B99184A03460B98984713480E990E9A034614989847069882000C98C2
:205C9000002109F0A5FE9DF8142014980B990CF06DFF012801D0052000E0002015B000BD15
:205CB000884F00208C4F002031DB001021DC0010B9DB0010C9DE0010580D0020F9E00010F0
:205CD0004C7E0100C9E600106C7E01002DE9F84FDFF804B20746ABF13500DFF8F081006887
:205CF000800880F0E28075480068006880477E490831D1F8009000254FEA29715FEA995261
:205D100001F101010AD2C0F13E0210F10A0F4FEAE202D8BF08229142B8BF111C684BD3F8C5
:205D30007C21C2F30462162AA8BF203A1B68C3F30443162BA8BF203B9A465218162A05DAAE
:205D500012F10A0FB8BF6FF0090200E015225D4B5D4E02F01F0141F4F8511980316811F009
:205D7000030F18BF0125C90828BF45F002050FB145F00405434693F90710411A052904DA7F
:205D90009979A94208BF99886FD0DFF844E10F28A0F10F0829DB08EB0011A1F1F0084FEA29
:205DB00028210091072984BF07210091062988BF06215EF821600424774604EB81043C596B
:205DD0004FEA950CA41BEE0804F0FF0124BFC4F3072631446F08AE0824BFC4F3074631446B
:205DF0006E0828BF01EB146104E000214FEA950C6F080091009C5EF824E05FEA5C060EF04F
:205E1000FF0424BFCEF3072634447E0824BFCEF3074634446E0828BF04EB1E64009E89B290
:205E3000A8EB06267143803104EB1124AAEB02010029D8BF0121342209F0FF074A4391B26B
:205E50004FF6FF727943B1FBF4F18A4238BF111C802889B2998005DA10F1800FB8BF6FF0FE
:205E70007F0000E07F20D8719D711A4800681F2918604FF0000008D340F2FF128A4206D232
:205E90004908401C8A42FBD301E01F219980134F0F39090940EAC10047EA0001CBF8FB1FBB
:205EB0000026CBF8FF6FBDE8F88F0D490D4F434608200F609B1D1870BDE8F88FEC01001014
:205ED0003C1100506E620840242208406C2200209C130050082009403500094000E7A480C8
:205EF00030100940FDFDA400AC3F005000B5ADF12C0D0493039202910190019878B10298F8
:205F100068B1039858B1049848B10C9838B10D9828B10D98006A10B10D98406A48B90D984F
:205F300020B10D986FF0010180F82C106FF00100DAE00D986D4A816A106810F0D1FF0D9977
:205F500081F82C000D9890F92C0038B90D986FF0020180F82C106FF00200C5E00D980D9935
:205F70000D9A00784988126A00EB80000918143188B290475E49086058B95C48006810F097
:205F9000ABFF0D984FF0FF3180F82C104FF0FF30AAE00D99564849880068401805900D9878
:205FB00005990078001D401806900D9806990078001D401807900D9807990078001D4018B6
:205FD00008900D9808990078001D401809900D980AF038FF0D9805990078C01C421000EBA3
:205FF0009270801008600D9806990078C01C421000EB9270801008600D9807990078C01C2F
:20601000421000EB9270801008600D9808990078C01C421000EB9270801008600D98099921
:206030000078C01C421000EB9270801008600D9A059801991278001D07F0CAFD0D9A06983D
:2060500002991278001D07F0C3FD0D9A079803991278001D07F0BCFD0D980699079A03789E
:206070000D98FFF721FD8DF828009DF92800B8B909980090089B0699079A059810F028FFA3
:206090008DF828000D9A089904981278091D07F09FFD0D98099902780C98091D07F098FD05
:2060B0000D990D984A880078114900EB800012180868002109F08CFC0D980D4A406A01464D
:2060D000106888470948006810F006FF9DF82800992802D100208DF828009DF928000D9929
:2060F00081F82C009DF928000BB000BD7C220020884F002079488078FF2800D170472DE982
:20611000F84F0FF0DDFF054605F20F100178012908BF417800F08A8005F58E74E18911B1A7
:20613000207B05F0D5F96889288105F17401887B022803D105F174000021817305F5897970
:20615000DFF89CE19EF80A009EF807309EF80C209EF80B109EF80D60B9F8027000EB0308DF
:2061700090448844B044B9F80460761CA9F80460C719B9F80060A9F802704644A9F8006040
:206190002468E4B1574F95F806B03F68182607F10E0A06FB0BFB0E371AF80BA034F81AB0F1
:2061B000C34424F81AB095F806A006FB0AF6BE5D04EB4604B4F84A70C619A4F84A60002BA4
:2061D00008BF002905D1002A04BF9EF80D1000290FD02989E88941180026A9812E74424849
:2061F00041690A78900726D59EF80E00802822D022E018B100200126287405E0B9F8060049
:20621000401C0226A9F80600A8892989814206D08842E4D2081A41F2AB029042DFDA287C16
:2062300008B1052901D0082100E03E212846BDE8F44F10F021BF812005F1740A8AF8000061
:206250002846FBF76DF8012846D00121284610F03BFE284610F034FE02F092FC01283BD00D
:20627000FBF71EFD214F3868B0B3B888AA7990421CBF4FF6FD7188422ED11D48007A10F023
:206290008FF8040028D02670A8791A4960800A68A879115C21719AF900206271A4F8068037
:2062B000B9F80200208110F043F8050005D1FF204FF0FF31A072E16009E02878A07210F0E8
:2062D000ABFE0146A86810F0F7FD8008E06020463968BDE8F44F0847BDE8F18F684E0020B9
:2062F0005C4D0020804E0020C48001005C220020E40F00208C2200202DE9FE4F0E46824694
:20631000307AC10693461F464FF000090CD5584610F0CEFD030000F0E8800A223146504698
:2063300098475FEA00094DD130780C9D0D9CDDF8388002281AD170680178407801EB00214C
:2063500089B24FF42052891A012910D9891E3AD0491E14D0FD397AD0491E00F08180491E4C
:206370006DD0491E73D0491E00F09580ABE0002C2AD1F068017829800278416887E0002CD8
:2063900022D101202880F1680A783A7000217089401C80B210F088FD298860B10278921C95
:2063B00051182980418979704289120ABA7041680278F81C6CE0091D298004220021781CCA
:2063D00010F013FA93E0002C66D1F0680688042129803E70320A7A700DF10201304610F0CB
:2063F00063FD040021D0D4F80C80BDF802204FF6FF766B46314610F053FD40B92378626879
:206410003C48022110F048FD08B9ADF8006098F8000002280BD1D8F804100222381D0FF0C8
:20643000E7FC2888801C288001E0ADF80060BDF80000B870BDF80010090AF97057E0002C0E
:206450002AD1F068016850460EF054FF02E01CBBF0680088022129803870000A787046E064
:20647000F06810F0C4F980B2A042B8BF4FF007093DDB844208BF002205D008EB04028242C4
:20649000B4BF4246021B2A8092B2F068011938460FF0AEFC2BE014B14FF00B0927E0F068CB
:2064B0000721298002783A7043787B704188B9704288120AFA7001793971C2887A71C0884E
:2064D000000AB87113E0584610F0E2FC5FEA00090BD00F980290CDF8048000942B463A46D6
:2064F00031465046C847814601E04FF00E094846BDE8FE8FAE8001000EB500928DF8051094
:206510008DF8040000208DF80600BBE09DF80500082806D100999DF80520694807F058FBAD
:20653000CAE018208DF80600C6E09DF8050014280BDC64480021152209F04AFA00999DF80C
:206550000520604807F044FBB6E018208DF80600B2E09DF8050014280BDC5B480021152285
:2065700009F036FA00999DF80520574807F030FBA2E018208DF806009EE09DF80500142835
:206590000BDC52480021152209F022FA00999DF805204E4807F01CFB8EE018208DF80600D5
:2065B0008AE09DF8050014280BDC49480021152209F00EFA00999DF80520454807F008FBE0
:2065D0007AE018208DF8060076E09DF8050014280BDC40480021152209F0FAF900999DF881
:2065F00005203C4807F0F4FA66E018208DF8060062E09DF8050014280BDC3748002115221E
:2066100009F0E6F900999DF80520334807F0E0FA52E018208DF806004EE09DF805000FF037
:206630002EFE02900298B0B12C482D490068814203D02A4800680FF05FFF029800999DF8AA
:20665000052007F0C5FA0298244908609DF805002449087030E013208DF806002CE09DF8F2
:206670000500072806D100999DF805201E4807F0AFFA21E018208DF806001DE002208DF83E
:20669000060019E09DF804000828F7D801A151F8200087461D6500003B6500006365000091
:2066B0008B650000B3650000DB650000036600002B6600006F6600009DF806000EBDC04647
:2066D00038100020A00E0020B50E0020610E0020760E0020CA0E00208B0E0020CC0F0020B2
:2066F000B30F0020D00F0020CF1000200EB501900198407816280CD102200BF0A9FF0028FD
:206710002AD1012006F01CF901986A49086000209FE0019800797E280DD101986749007A96
:20673000654A00900878001DC1B2106849A300220EF0A7FA10E0019800797F280CD10198B6
:206750005E4900895C4A00900878001DC1B2106844A300220EF095FA5949102006F0EEFAF5
:2067700000286FD0019840880BF06AFB55490880019800790B2807D001980079012824D16F
:206790000198007A0A2820D10198007901280DD101984A49007B484A00900878401DC1B281
